:100000000C9434000C9446000C9446000C9446006A
:100010000C9446000C9446000C9446000C94460048
:100020000C9446000C9446000C9446000C9472000C
:100030000C9446000C9446000C9446000C94460028
:100040000C9446000C9446000C9446000C94460018
:100050000C9446000C9446000C9446000C94460008
:100060000C9446000C94460011241FBECFEFD8E03C
:10007000DEBFCDBF21E0A0E0B1E001C01D92AF30F6
:10008000B207E1F70E944C000C94DF000C940000D2
:100090000CEFFECF1FECFECFE3E0F1E0108281E039
:1000A000868388E490E0958384838AE490E0938754
:1000B000828780E190E09093890080938800A1E896
:1000C000B0E08C9188608C93CFE6D0E0888182602C
:1000D00088838C9185608C9378940480F581E02DE1
:1000E0000995FFCF1F920F920FB60F9211248F9395
:1000F0009F93F89489E091E090930201809301012D
:100100000F920FB60F921F922F923F924F925F92D3
:100110006F927F928F929F92AF92BF92CF92DF9217
:10012000EF92FF920F931F932F933F934F935F9301
:100130006F937F938F939F93AF93BF93CF93DF93EF
:10014000EF93FF931DB72EB7A0910101B09102016B
:100150001D932D9310910301209102011DBF2EBF0D
:10016000FF91EF91DF91CF91BF91AF919F918F91CF
:100170007F916F915F914F913F912F911F910F91BF
:10018000FF90EF90DF90CF90BF90AF909F908F90B7
:100190007F906F905F904F903F902F901F900F90A7
:1001A0000FBE0F90809100018F5F809300017894C3
:1001B0009F918F910F900FBE0F901F901895F894FC
:0201C000FFCF6F
:00000001FF
